{
  "_format": "hh-sol-artifact-1",
  "contractName": "MockRouter",
  "sourceName": "infrastructure/contracts/MockRouter.sol",
  "abi": [
    {
      "inputs": [],
      "stateMutability": "nonpayable",
      "type": "constructor"
    },
    {
      "anonymous": false,
      "inputs": [
        {
          "indexed": false,
          "internalType": "uint256",
          "name": "previousPriceE18",
          "type": "uint256"
        },
        {
          "indexed": false,
          "internalType": "uint256",
          "name": "nextPriceE18",
          "type": "uint256"
        }
      ],
      "name": "EthUsdPriceUpdated",
      "type": "event"
    },
    {
      "anonymous": false,
      "inputs": [
        {
          "indexed": true,
          "internalType": "bytes32",
          "name": "executionRef",
          "type": "bytes32"
        },
        {
          "indexed": true,
          "internalType": "address",
          "name": "sender",
          "type": "address"
        },
        {
          "indexed": true,
          "internalType": "address",
          "name": "recipient",
          "type": "address"
        },
        {
          "indexed": false,
          "internalType": "uint256",
          "name": "amountIn",
          "type": "uint256"
        },
        {
          "indexed": false,
          "internalType": "uint256",
          "name": "amountOut",
          "type": "uint256"
        }
      ],
      "name": "SwapExecuted",
      "type": "event"
    },
    {
      "anonymous": false,
      "inputs": [
        {
          "indexed": false,
          "internalType": "address",
          "name": "weth",
          "type": "address"
        },
        {
          "indexed": false,
          "internalType": "address",
          "name": "usdc",
          "type": "address"
        }
      ],
      "name": "TokenPairConfigured",
      "type": "event"
    },
    {
      "inputs": [],
      "name": "ethUsdPriceE18",
      "outputs": [
        {
          "internalType": "uint256",
          "name": "",
          "type": "uint256"
        }
      ],
      "stateMutability": "view",
      "type": "function"
    },
    {
      "inputs": [
        {
          "internalType": "uint256",
          "name": "amountIn",
          "type": "uint256"
        },
        {
          "internalType": "address[]",
          "name": "path",
          "type": "address[]"
        }
      ],
      "name": "getAmountsOut",
      "outputs": [
        {
          "internalType": "uint256[]",
          "name": "amounts",
          "type": "uint256[]"
        }
      ],
      "stateMutability": "view",
      "type": "function"
    },
    {
      "inputs": [],
      "name": "owner",
      "outputs": [
        {
          "internalType": "address",
          "name": "",
          "type": "address"
        }
      ],
      "stateMutability": "view",
      "type": "function"
    },
    {
      "inputs": [
        {
          "internalType": "uint256",
          "name": "nextPriceE18",
          "type": "uint256"
        }
      ],
      "name": "setEthUsdPriceE18",
      "outputs": [],
      "stateMutability": "nonpayable",
      "type": "function"
    },
    {
      "inputs": [
        {
          "internalType": "address",
          "name": "weth",
          "type": "address"
        },
        {
          "internalType": "address",
          "name": "usdc",
          "type": "address"
        }
      ],
      "name": "setTokenPair",
      "outputs": [],
      "stateMutability": "nonpayable",
      "type": "function"
    },
    {
      "inputs": [
        {
          "internalType": "uint256",
          "name": "amountIn",
          "type": "uint256"
        },
        {
          "internalType": "uint256",
          "name": "amountOutMin",
          "type": "uint256"
        },
        {
          "internalType": "address[]",
          "name": "path",
          "type": "address[]"
        },
        {
          "internalType": "address",
          "name": "to",
          "type": "address"
        },
        {
          "internalType": "uint256",
          "name": "deadline",
          "type": "uint256"
        }
      ],
      "name": "swapExactTokensForTokens",
      "outputs": [
        {
          "internalType": "uint256[]",
          "name": "amounts",
          "type": "uint256[]"
        }
      ],
      "stateMutability": "nonpayable",
      "type": "function"
    },
    {
      "inputs": [],
      "name": "tokenUsdc",
      "outputs": [
        {
          "internalType": "address",
          "name": "",
          "type": "address"
        }
      ],
      "stateMutability": "view",
      "type": "function"
    },
    {
      "inputs": [],
      "name": "tokenWeth",
      "outputs": [
        {
          "internalType": "address",
          "name": "",
          "type": "address"
        }
      ],
      "stateMutability": "view",
      "type": "function"
    }
  ],
  "bytecode": "0x60a060405234801561001057600080fd5b5033608052686c6b935b8bbd400000600055600180546001600160a01b0319908116909155600280549091169055608051610bd16100666000396000818160f90152818161051801526105f60152610bd16000f3fe608060405234801561001057600080fd5b50600436106100885760003560e01c806395e5922c1161005b57806395e5922c1461011b5780639a07f6621461012e578063b517f7cb14610143578063d06ca61f1461015657600080fd5b806336f469161461008d57806338ed1739146100a95780634fd205cb146100c95780638da5cb5b146100f4575b600080fd5b61009660005481565b6040519081526020015b60405180910390f35b6100bc6100b7366004610994565b610169565b6040516100a09190610a04565b6001546100dc906001600160a01b031681565b6040516001600160a01b0390911681526020016100a0565b6100dc7f000000000000000000000000000000000000000000000000000000000000000081565b6002546100dc906001600160a01b031681565b61014161013c366004610a48565b61050d565b005b610141610151366004610a61565b6105eb565b6100bc610164366004610a94565b610707565b606060028410156101ae5760405162461bcd60e51b81526004016101a5906020808252600490820152630a082a8960e31b604082015260600190565b60405180910390fd5b814211156101e95760405162461bcd60e51b8152602060048201526008602482015267444541444c494e4560c01b60448201526064016101a5565b6000858560008181106101fe576101fe610ae0565b90506020020160208101906102139190610af6565b905060008686610224600182610b27565b81811061023357610233610ae0565b90506020020160208101906102489190610af6565b6040516323b872dd60e01b8152336004820152306024820152604481018b90529091506001600160a01b038316906323b872dd906064016020604051808303816000875af115801561029e573d6000803e3d6000fd5b505050506040513d601f19601f820116820180604052508101906102c29190610b40565b6102fc5760405162461bcd60e51b815260206004820152600b60248201526a2a2920a729a322a92fa4a760a91b60448201526064016101a5565b60006103098a848461081f565b9050888110156103465760405162461bcd60e51b8152602060048201526008602482015267534c49505041474560c01b60448201526064016101a5565b60405163a9059cbb60e01b81526001600160a01b0387811660048301526024820183905283169063a9059cbb906044016020604051808303816000875af1158015610395573d6000803e3d6000fd5b505050506040513d601f19601f820116820180604052508101906103b99190610b40565b6103f45760405162461bcd60e51b815260206004820152600c60248201526b1514905394d1915497d3d55560a21b60448201526064016101a5565b6040516bffffffffffffffffffffffff1933606090811b8216602084015288811b8216603484015285811b8216604884015284901b16605c820152607081018b905243609082015260009060b00160408051601f1981840301815282825280516020918201208e845290830185905292506001600160a01b03891691339184917f2f4c76c8d18f45069b0941499205a7fceaaa3caf9e2e6328f6a544cd339120f3910160405180910390a460408051600280825260608201835290916020830190803683370190505094508a856000815181106104d3576104d3610ae0565b60200260200101818152505081856001815181106104f3576104f3610ae0565b602002602001018181525050505050509695505050505050565b336001600160a01b037f0000000000000000000000000000000000000000000000000000000000000000161461056d5760405162461bcd60e51b815260206004820152600560248201526427aba722a960d91b60448201526064016101a5565b600081116105a55760405162461bcd60e51b8152602060048201526005602482015264505249434560d81b60448201526064016101a5565b600080549082905560408051828152602081018490527f7270f9ae6c047ce36c9ffbed0b0edf967a5ae222ed585c6aabd837ffcf06346191015b60405180910390a15050565b336001600160a01b037f0000000000000000000000000000000000000000000000000000000000000000161461064b5760405162461bcd60e51b815260206004820152600560248201526427aba722a960d91b60448201526064016101a5565b6001600160a01b0382161580159061066b57506001600160a01b03811615155b6106a05760405162461bcd60e51b81526004016101a5906020808252600490820152635a45524f60e01b604082015260600190565b600180546001600160a01b038481166001600160a01b03199283168117909355600280549185169190921681179091556040805192835260208301919091527f7fdc79c7401e20c4f0006c239316cad055db9e040e6e731f5029ffac56a55f8f91016105df565b606060028210156107435760405162461bcd60e51b81526004016101a5906020808252600490820152630a082a8960e31b604082015260600190565b60008383600081811061075857610758610ae0565b905060200201602081019061076d9190610af6565b90506000848461077e600182610b27565b81811061078d5761078d610ae0565b90506020020160208101906107a29190610af6565b905060006107b187848461081f565b604080516002808252606082018352929350919060208301908036833701905050935086846000815181106107e8576107e8610ae0565b602002602001018181525050808460018151811061080857610808610ae0565b6020026020010181815250505050505b9392505050565b600080548082036108335784915050610818565b826001600160a01b0316846001600160a01b0316036108555784915050610818565b6001546002546001600160a01b03918216911681158061087c57506001600160a01b038116155b156108a257506006602160991b01905073036cbd53842c5426634e7929541ec2318f3dcf7e5b6001600160a01b0386811681841681811492888116908516818114931491148380156108cb5750825b156108fb57670de0b6b3a76400006108e3888d610b62565b6108ed9190610b79565b975050505050505050610818565b8180156109055750805b1561091d57866108e38c670de0b6b3a7640000610b62565b50989998505050505050505050565b60008083601f84011261093e57600080fd5b50813567ffffffffffffffff81111561095657600080fd5b6020830191508360208260051b850101111561097157600080fd5b9250929050565b80356001600160a01b038116811461098f57600080fd5b919050565b60008060008060008060a087890312156109ad57600080fd5b8635955060208701359450604087013567ffffffffffffffff8111156109d257600080fd5b6109de89828a0161092c565b90955093506109f1905060608801610978565b9150608087013590509295509295509295565b6020808252825182820181905260009190848201906040850190845b81811015610a3c57835183529284019291840191600101610a20565b50909695505050505050565b600060208284031215610a5a57600080fd5b5035919050565b60008060408385031215610a7457600080fd5b610a7d83610978565b9150610a8b60208401610978565b90509250929050565b600080600060408486031215610aa957600080fd5b83359250602084013567ffffffffffffffff811115610ac757600080fd5b610ad38682870161092c565b9497909650939450505050565b634e487b7160e01b600052603260045260246000fd5b600060208284031215610b0857600080fd5b61081882610978565b634e487b7160e01b600052601160045260246000fd5b81810381811115610b3a57610b3a610b11565b92915050565b600060208284031215610b5257600080fd5b8151801515811461081857600080fd5b8082028115828204841417610b3a57610b3a610b11565b600082610b9657634e487b7160e01b600052601260045260246000fd5b50049056fea2646970667358221220da7cc78d34e802bb835db6b9217a290a793a2456129aa9a5802972463bb2cdca64736f6c63430008180033",
  "linkReferences": {},
  "deployedLinkReferences": {}
}